{
	"data": {
		"bytecode": {
			"linkReferences": {},
			"object": "6080604052348015600e575f80fd5b50608a8061001b5f395ff3fe608060405260043610601e575f3560e01c8063b9750acf146028576024565b36602457005b5f80fd5b3480156032575f80fd5b506039603b565b005b3373ffffffffffffffffffffffffffffffffffffffff16fffea26469706673582212207e0c965edd5d9dc5eefbebdaf74a6d36e3f8e8dd68b6a403356bfd3269068c5f64736f6c63430008140033",
			"opcodes": "PUSH1 0x80 PUSH1 0x40 MSTORE CALLVALUE DUP1 ISZERO PUSH1 0xE JUMPI PUSH0 DUP1 REVERT JUMPDEST POP PUSH1 0x8A DUP1 PUSH2 0x1B PUSH0 CODECOPY PUSH0 RETURN INVALID PUSH1 0x80 PUSH1 0x40 MSTORE PUSH1 0x4 CALLDATASIZE LT PUSH1 0x1E JUMPI PUSH0 CALLDATALOAD PUSH1 0xE0 SHR DUP1 PUSH4 0xB9750ACF EQ PUSH1 0x28 JUMPI PUSH1 0x24 JUMP JUMPDEST CALLDATASIZE PUSH1 0x24 JUMPI STOP JUMPDEST PUSH0 DUP1 REVERT JUMPDEST CALLVALUE DUP1 ISZERO PUSH1 0x32 JUMPI PUSH0 DUP1 REVERT JUMPDEST POP PUSH1 0x39 PUSH1 0x3B JUMP JUMPDEST STOP JUMPDEST CALLER PUSH20 0xFFFFFFFFFFFFFFFFFFFFFFFFFFFFFFFFFFFFFFFF AND SELFDESTRUCT INVALID LOG2 PUSH5 0x6970667358 0x22 SLT KECCAK256 PUSH31 0xC965EDD5D9DC5EEFBEBDAF74A6D36E3F8E8DD68B6A403356BFD3269068C5F PUSH5 0x736F6C6343 STOP ADDMOD EQ STOP CALLER "
		},
		"gasEstimates": {
			"creation": {
				"codeDepositCost": "27600",
				"executionCost": "79",
				"totalCost": "27679"
			},
			"external": {
				"selfDestroy()": "27720"
			}
		},
		"methodIdentifiers": {
			"selfDestroy()": "b9750acf"
		}
	},
	"abi": [
		{
			"inputs": [],
			"name": "selfDestroy",
			"outputs": [],
			"stateMutability": "nonpayable",
			"type": "function"
		},
		{
			"stateMutability": "payable",
			"type": "receive"
		}
	]
}